:100000000C94F6010C94BB1A0C9413020C9413027A
:100010000C9413020C9413020C9413020C9413020C
:100020000C9413020C9413020C9403220C94D72208
:100030000C94DE1C0C9413020C9413020C94130207
:100040000C9413020C9413020C9413020C941302DC
:100050000C9413020C94811D0C9413020C94130243
:100060000C9413020C9413020C9413020C941302BC
:100070000C9413020C9413020C9413020C941302AC
:100080000C9413020C9413020C9413020C9413029C
:100090000C9413020C9413020C9413020C9413028C
:1000A0000C9413020C9413020C94130229001400F4
:1000B0001A000800150017002B00040016000700A6
:1000C00009000A0003511D001B000600190005006D
:1000D000000000004A004D00E000000000000000A9
:1000E000E2000250E30039621C0018000C0012000C
:1000F00013002D000B000D000E000F003300340024
:10010000110010003600370038002E0000002C00CF
:100110002F0030000000000065002A000150280078
:1001200000000000290000000000000000000000A6
:1001300000000000F300F200F1007E0001001D0845
:100140001B0806081908000000000000B700B600F0
:100150000100000000000000010002500100010049
:10016000FF00FB00ED00FC00F9000000FE00EF00C6
:10017000EE00F000FA000000FD00000000000000AA
:100180000000000000000100AA00A900000000001B
:10019000010001000050010000000000290055008E
:1001A0005F00600061005700260254005C005D00A3
:1001B0005E0056002702220259005A005B006700C9
:1001C0000000000062006300010000000000000069
:1001D000010000500100010053004A0052004D0090
:1001E0004B0000000000500051004F004E00000086
:1001F00000007B007C007D0000000000000001008A
:10020000000000000000000001000100015001009A
:100210000000000035001E001F0020002100220009
:100220002B001E021F0220022102220201003A00BE
:100230003B003C003D003E00000000004B004E0033
:1002400001000000000000000100005C010001004E
:100250002300240025002600270031002302240269
:1002600025022602270231023F00400041004200E1
:10027000430044000000010044004500000000006D
:1002800001004C0046000100000000004203440051
:1002900061006300740079006C0020004D00610073
:1002A0006E00750066006F0072006D002000340063
:1002B00078003600200035002000740068007500CA
:1002C0006D00620020006B00650079007300000083
:1002D0000E037400730068006F0072007400000069
:1002E0000403090409023B00020100A0FA0904000A
:1002F0000001030101000921110100012240000752
:100300000581030800010904010001030000000940
:100310002111010001227B00070582032000011248
:10032000010002000000084D4436340100010200C3
:100330000105010902A10185020901A100050919B0
:10034000012908150025019508750181020501099B
:100350003009311581257F95027508810609381508
:1003600081257F950175088106050C0A38021581E3
:10037000257F950175088106C0C005010980A1018E
:10038000850319012AB700150126B70095017510DC
:100390008100C0050C0901A101850419012AA002F0
:1003A000150126A002950175108100C005010906FE
:1003B000A101050719E029E7150025019508750138
:1003C00081029501750881010507190029FF1500B3
:1003D00026FF009506750881000508190129059575
:1003E0000575019102950175039101C011241FBE8D
:1003F000CFEFDAE0DEBFCDBF11E0A0E0B1E0EAEC84
:10040000FAE402C005900D92AE39B107D9F722E0A7
:10041000AEE9B1E001C01D92A83AB207E1F70E942F
:10042000D9130C944D250C94000081E0089581E0CF
:1004300008950E941702089508950E941C020895CD
:10044000A5E0B0E0E6E2F2E00C94B92449835A83D7
:100450003091A50189819A81311119C0662399F0E3
:10046000222389F00E941808182F682F89819A8109
:100470000E94F40769817A81812F0E94C40E25961B
:10048000E3E00C94D5240E940608182FF3CF0E94B5
:10049000180869817A81F1CFFC01262F40815181B2
:1004A0006281738184810E942002089581E0089511
:1004B000CF93DF93EC0160E00E944C02BE010E94EA
:1004C0001D02DF91CF9108950E942B1008950E9484
:1004D0002F10089508950E94BF060E946A022FEF10
:1004E00084E39CE0215080409040E1F700C0000090
:1004F00008950E946B020E94A51D08950E946B0240
:100500000E94B61D08950F931F93CF93DF938C0124
:1005100061E00E944C02EC01B8010E9419028111B5
:1005200006C080E0DF91CF911F910F910895B8012F
:10053000CE010E94CB198823A1F3B801CE010E94FD
:100540008216882371F3B801CE010E943D198823D9
:1005500041F3F8018281882361F0CB35FDE5DF07A7
:1005600001F158F4C115ECE5DE0791F0CF3DDC4513
:1005700091F0C8010E941502D5CFCD358DE5D80781
:1005800069F090F0C83ADD45A1F70E947E02C9CF1C
:100590000E947902C6CF0E94030DF7CF0E94480C3B
:1005A000E8CF0E94520CE5CF0E94560CE2CF0E9489
:1005B000BB1C0E94F40208950E94F8020E94C01C15
:1005C000089508950E94E102089581E008950E942F
:1005D000E50208950895CF93C82F0E94E2028C2F60
:1005E0000E94E702CF91089580E00E94EB020895F7
:1005F0000E94E11B0E94EB020895CF930E94E11B31
:10060000C82F8091A0018C1779F0C093A0010E949F
:100610004A1D6093A1017093A2018093A30190935E
:10062000A4018C2F0E94EB02CF910895ABE0B0E0C3
:10063000ECE1F3E00C94BA244F83588769877A87FA
:100640008B8761110E94930B1E821D8285E0FE0143
:100650003796DE01119601900D928A95E1F78C8113
:100660009D81892B61F449815A816B817C818D81C7
:100670009E810E94BC0A2B96E2E00C94D6248981CC
:100680009A8189238F3F79F3CE0101960E94560209
:100690008111E9CFF0CFFC01808191810E944A084D
:1006A0000895CF93C82F8823C9F08238C9F40E94D7
:1006B000E11B81FD13C089E30E944B0B0E94B40B28
:1006C0002FEF87EE93E0215080409040E1F700C08B
:1006D000000089E30E94530B0E94B40BCF91089550
:1006E0008338A1F40E94E11B80FDF8CF83E50E94CE
:1006F0004B0B0E94B40B2FEF81EE94E02150804011
:100700009040E1F700C0000083E5E4CF8438A1F415
:100710000E94E11B82FDE2CF87E40E944B0B0E9406
:10072000B40B2FEF81EE94E0215080409040E1F730
:1007300000C0000087E4CECF8CEF8C0F813AB8F474
:100740008C2F0E9481188111C9CF6C2F80910001DC
:10075000909101010E944C1C882329F08C2F0E944B
:10076000530B0E94B40B8C2F0E944B0BB5CF80E231
:100770008C0F883048F4C77081E001C0880FCA959B
:10078000EAF70E94760BA8CFEBE5EC0FE33040F4DC
:10079000F0E0E45AFE4F808190E00E940E1C9ECF54
:1007A000E8E5EC0FE73150F4F0E0EE0FFF1FE25DFB
:1007B000FE4F808191810E94241C90CFCD3E08F491
:1007C0008DCF8C2F0E945D140E94301587CF882317
:1007D00009F455C0823879F40E94E11B81FF4FC0B3
:1007E00089E30E944B0B0E94B40B89E30E94530BD8
:1007F0000E94B40B0895833859F40E94E11B80FFD6
:100800003EC083E50E944B0B0E94B40B83E5EECF04
:10081000843859F40E94E11B82FF31C087E40E94B2
:100820004B0B0E94B40B87E4E1CF9CEF980F913AF9
:10083000E8F290E2980F983050F4877091E001C090
:10084000990F8A95EAF7892F0E947C0BD1CF9BE5FF
:10085000980F933028F490E080E00E940E1C0895D9
:1008600098E5980F973128F490E080E00E94241CCE
:1008700008958D3E20F00E94B7140E94301508950F
:100880001F93CF93DF93182FEB010E945103209702
:1008900039F4812F0E94E703DF91CF911F910895D2
:1008A0008FE99FE00197F1F700C000002197EFCF9B
:1008B00070E060E0893311F460E570E00E9440046C
:1008C0000895882321F00E94760B0E94B40B0895AE
:1008D000882321F00E947C0B0E94B40B0895B0E0A5
:1008E000A0E0E5E7F4E00C94B3246C01D62FC72F09
:1008F000FC011281F580F2949FE0F9220E946C0BBA
:10090000E82E8823B9F0E12E1123A1F08C2F807FEF
:10091000803421F080E28D0F8830D0F08091800209
:1009200082FF16C082E00E94170C0E946C0B91E0BF
:10093000E82EE926BC2EB2948FE0B822FBE0FB152E
:1009400008F468C0EB2DF0E0E15BFA4D0C94A424B0
:10095000E12CF0CF0C2F0F70C07F11F00295007FBB
:10096000112399F0002359F080E28D0F883010F0A8
:10097000D11107C0802F0E94760B0E94B40B8D2FDF
:1009800041C0802F0E94860BF8CF8D2F0E94E70375
:10099000002309F43FC080E28D0F883010F0D111A0
:1009A00004C0802F0E947C0B03C0802F0E948C0B00
:1009B0000E94B40B2FC00C2F0F70C07FC03211F0FB
:1009C0000295007FDD2381F0D13009F463C011234B
:1009D00009F46DC0FF2009F463C0F601858180FF32
:1009E000CECF8F7085835CC08091800282FD33C042
:1009F000112359F0002329F0802F0E94760B0E94CA
:100A0000B40B80E00E94510305C080E00E94E70320
:100A10000111C7CFEB2DE850FF0B349720F40E9453
:100A2000E11B0E94EB02EE2089F00E94680B80FD22
:100A30000DC0F60112820E94620B0E945207C6018D
:100A40000E947F060E94620B0E946207CDB7DEB74C
:100A5000E9E00C94CF24112389F0F11006C00E9424
:100A6000960B802B0E946104D5CF21E0F212F7CFC4
:100A70000E94960B802B0E949D0BCCCFF11006C0DC
:100A80000E94AA0B802F0E946804C4CF31E0F316A5
:100A900009F2F6CF112331F085E08F1508F4BACFB3
:100AA000802FE0CF94E09F1508F4B4CFEBCFFF2068
:100AB00049F3D93349F4FFEF27EE33E0F1502040FA
:100AC0003040E1F700C000008D2F0E94E703A2CF65
:100AD0008C2F86958695837069F0813009F09ACFC6
:100AE0008D2F9C2F9370111102C090E080E00E9426
:100AF000241C90CF8D2F9C2F9370111102C090E079
:100B000080E00E940E1C86CF8D2F112329F00E94B9
:100B10005D140E9430157ECF0E94B714FACF8C2F3F
:100B20008370A1F5111176CF4D2F429546954770F0
:100B3000440F440F2D2F2F7030E0042E02C0220FDF
:100B4000331F0A94E2F790E080E0D4FF09C08FE001
:100B500090E002C0880F991F4A95E2F78095909522
:100B6000C695C695C370822B932BC23049F058F4BA
:100B7000C13019F00E9420074DCF0E9417074ACFBD
:100B80000E94290747CF0E94140744CF869511235E
:100B900011F08C2F8170882309F43CCF4D2F4295A2
:100BA00046954770440F440F2D2F2F7030E0042ED0
:100BB00002C0220F331F0A94E2F790E080E0D4FFD6
:100BC00009C08FE090E002C0880F991F4A95E2F7B4
:100BD00080959095C695C695C370822B932BC23095
:100BE00049F058F4C13019F00E948D0713CF0E94CC
:100BF000840710CF0E9496070DCF0E9438070ACFB6
:100C0000CF70112329F08C2F0E9452078D2F2ACFED
:100C10008D2F0E9468048C2F0E946207FBCED23F6A
:100C200051F160F4D03FB9F0D13F81F0112309F4C4
:100C300049C0F110A4CE8C2F8F7121C0D33F11F188
:100C4000D43FA1F78091800282FD26C08C2F8F7146
:100C5000112311F314C0112349F084E08F1508F417
:100C6000D9CE8C2F8F710E947407D4CE95E09F153A
:100C700008F4D0CEF6CF8C2F8F711111CDCF0E94FA
:100C80005207C8CE112329F08C2F8F710E9446077E
:100C9000C1CE0E944107BECE112349F0CF718C2FE7
:100CA0000E94520763E08C2F0E94F90BB3CE81E0C3
:100CB0000E94170CE1E0EF1508F0ACCE82E00E9434
:100CC000170CA8CEF110F5CE8C2F8F71A5CF0F93F6
:100CD0001F93CF93DF93EC01688179818A810E9411
:100CE00055088C010E949F070E941307B801CE018E
:100CF0000E946F04DF91CF911F910F910895CF93C0
:100D0000DF93EC018B819C81892B29F0888199816B
:100D100089238F3F51F4DF91CF910895CE010E9436
:100D20006706CE010E945802F6CFCE010E948302D0
:100D30008111F4CF0E946C0B882369F38A81882388
:100D400051F38091800282FFE6CF82E00E94170C6F
:100D5000E2CF90E080E00E940E1C90E080E00E94D4
:100D6000241C0E94930B0E94B40B0E944C150E94FD
:100D7000301508950E945B0B0E94A90608950E94F9
:100D8000830B0E94BA06089592959F70963091F059
:100D900058F4925F9F70923058F4803F19F030F40D
:100DA000883E30F481E008959A5FF4CF843FD1F318
:100DB00080E00895883EB0F3813FD1F7F3CFFC0186
:100DC00083819481892B29F08081918189238F3FB0
:100DD00011F480E00895808191810E944A080E9468
:100DE000C4060895A5E0B0E0E8EFF6E00C94BA245C
:100DF0002596E2E00C94D624A6E0B0E0E2E0F7E02D
:100E00000C94BA242696E2E00C94D62408950E940D
:100E1000060708950E9407079093C9018093C801AF
:100E20000E94A906089508950E940A070895209136
:100E3000C8013091C901822B932B0E940A070895A3
:100E40002091C8013091C901822393230E940A078F
:100E500008952091C8013091C901822793270E94EB
:100E60000A0708950E94060708950E943207089510
:100E70000E9435079093C7018093C6010E94A9067E
:100E8000089590E080E00E943807089521E030E066
:100E9000A90102C0440F551F8A95E2F7CA010E94BA
:100EA0003807089521E030E002C0220F331F8A95F1
:100EB000E2F78091C6019091C701822B932B0E948B
:100EC0003807089521E030E002C0220F331F8A95D1
:100ED000E2F7209530958091C6019091C701822359
:100EE00093230E943807089521E030E002C0220FCA
:100EF000331F8A95E2F78091C6019091C70182273E
:100F000093270E94380708952091C6013091C701A8
:100F1000822B932B0E94380708952091C6013091AF
:100F2000C701822393230E94380708952091C601A8
:100F30003091C701822793270E94380708950895AA
:100F4000262F277091E001C0990F2A95EAF723E038
:100F5000769567952A95E1F7660F771F660F771FDD
:100F6000FA01E60FF71F50E040E0682F70E0819132
:100F7000DF0111979B01042E02C0369527950A9434
:100F8000E2F7217021952827292328272C934F5FEA
:100F90005F4F4430510559F70895A82FA77023E0FB
:100FA000969587952A95E1F7880F991F880F991FC5
:100FB000FB01E80FF91F50E040E080E0219130E0B4
:100FC0000A2E02C0369527950A94E2F7217033273E
:100FD000042E01C0220F0A94EAF7822B4F5F5F4F65
:100FE0004430510559F70895262F9A3070F4863011
:100FF00060F4682F70E086E0989F600D711D1124E9
:1010000046EA51E0822F0E94A0070895292F9A30C6
:1010100068F4863058F490E066EA71E036E0239F89
:10102000800D911D11240E94CD07089580E0089540
:10103000B0E0A0E0EEE1F8E00C94B3247C01009174
:10104000C6011091C7018091C8019091C901082B78
:10105000192BCFE0D0E0CC24C394D12CBC2EC601F8
:101060000C2E02C0880F991F0A94E2F78023912367
:10107000892B49F4219790F7B12C8B2DCDB7DEB792
:10108000E9E00C94CF24B7018C2F0E94DF0E01976A
:1010900089F3F3CFCF93DF93EC010E941808BE01D0
:1010A0000E94DF0EDF91CF9108951F93CF93DF93BE
:1010B000EB019091A501992339F0CB010E944A08D8
:1010C000DF91CF911F910895882369F0CB010E9491
:1010D0001808182F682FCE010E94F407BE01812F37
:1010E0000E94DF0EEDCFCB010E940608182FF6CF2D
:1010F0001F93CF93DF93C091CA0116E08091CB017B
:101100008C1304C0DF91CF911F910895D0E01C9FF4
:10111000F0011D9FF00D1124E453FE4F40815181D9
:1011200062817381848195810E94FC062196C7703B
:10113000E5CF4091FC015091FD016091FE0170915D
:10114000FF0180910002909101020E94FC06089527
:101150002091CA019091CB0156E0291302C080E092
:10116000089530E0529FF001539FF00D1124E45395
:10117000FE4F7181761306C07081781303C07281AF
:10118000741304C02F5F3F4F2770E7CF81E00895AD
:101190001F93CF93DF9380910102807F09F049C0B4
:1011A0008091FE01882309F444C08091CA01C09156
:1011B000CB016091FC017091FD01A091FF01B09104
:1011C0000002D62FD72316E0C81799F190E01097A8
:1011D00011F0DF3F19F401968770F6CF189F900148
:1011E000199F300D1124F901E453FE4F418147133B
:1011F000F2CF40814613EFCF42814111ECCF4381C2
:1012000054814A1B5B0B483C510528F78091010231
:101210008F70806180930102F901EF52FE4F80814F
:101220008F70806180838CEF91E00E947F060E9426
:101230007808DF91CF911F910895A1E1B0E0E3E23A
:10124000F9E00C94B0248C0185E0F801DE011D96D4
:1012500001900D928A95E1F7D8011296EC901297C1
:101260008CEFA82E81E0B82E4091FF015091000232
:101270004115510509F461C19091FC012091FD01D6
:10128000892F82238F3F09F458C1CC901196DC90AE
:10129000119713968D909C901497F090FE01F40195
:1012A000E41BF50BFF2009F4F6C080910102382FF2
:1012B000307FE83CF10508F0B0C031117BC0FE2C56
:1012C000D21217C09C1115C0E11013C08F7080613D
:1012D000809301020E949908C5010E947F068091B7
:1012E0000102D80115968C938F2D6196ECE00C9439
:1012F000CC248114910429F08D2D8C218F3F09F08D
:1013000038C180E080FF15C04E2D6D2D8C2D0E94C0
:10131000A808882371F08CEF91E00E947F0686E098
:10132000ECEFF1E0DF011D928A95E9F70E94990840
:101330003FC08114910429F08D2D8C218F3F09F03D
:1013400015C180E0B82FB170AB2E80FF29C04E2DA3
:101350006D2D8C2D0E94A808B82E811121C0CD863C
:10136000DE868D859E850E944A08292F22952F7042
:10137000223050F0243078F49F7051F0F8019581BC
:10138000907F31F4FB2CB0CF9F7011F08823D1F304
:10139000805E8830B8F3C8010E947F06BA2CF2CF75
:1013A000EE2009F4A1CF80910102816080930102B7
:1013B000F12C9ACFD21205C09C1103C0EE2009F483
:1013C00087C0C8010E94DF06882319F1EE2009F1C9
:1013D00080910102803270F02091FC013091FD017A
:1013E00038872F8319869B868A868C87CE0107963D
:1013F0000E947F0686E0F801ACEFB1E001900D920B
:101400008A95E1F70E94C8080E949908FF24F39486
:101410006BCFC8010E947F06F9CF311112C0782D21
:10142000998A888AA6016E2D89890E94F2068CEF1E
:1014300091E00E947F0686E0F50111928A95E9F716
:1014400075CFD2120FC09C110DC0E1100BC01596C4
:101450008C93C8010E947F0686E0F50111928A955F
:10146000E9F742CFC8010E94DF06882391F2EE20FF
:1014700081F280910102803208F4BCCF2091FC01FE
:101480003091FD013A8329831B829D828C828E8359
:10149000CE010196ADCFE83CF10508F040C0FE2C2E
:1014A000EE2009F4B6CFD2122CC09C112AC0809134
:1014B000010280FD1DC0982F907FD1F015968C936E
:1014C0001597903F39F0982F907F905F8F70892B00
:1014D00015968C93C8010E947F0686E0F801ACEF58
:1014E000B1E001900D928A95E1F70E949908FCCE37
:1014F00086E0F801ACEFB1E001900D928A95E1F73A
:10150000F3CEC8010E94DF06811174CF80910102E1
:10151000816080930102C8010E947F06E5CE782D8C
:10152000998A888AA6016E2D89890E94F20686E032
:10153000F50111928A95E9F7D8CFEE2009F469CF29
:10154000C8010E94DF06F82E882309F462CF86E0E6
:10155000F801ACEFB1E001900D928A95E1F78CEFC4
:1015600091E00E944B030E94C808BFCF81E08E2506
:10157000E9CE81E08E25C6CEACE0B0E0E2ECFAE048
:101580000C94B9244F83588769877A878B879C8707
:10159000CE0107960E941D09882369F08A859B85E4
:1015A000892B39F04F815885842F85238F3F09F08F
:1015B0006BC016E05FC086E0FE013796DE01119633
:1015C00001900D928A95E1F78A859B85892B89F395
:1015D00088859F8189238F3F61F32091CB0130E083
:1015E000C9010196877099274091CA0148171906C9
:1015F00071F40E94BF061092CB011092CA0186E0DE
:10160000ECEFF1E0DF011D928A95E9F7D2CF96E089
:10161000929FD001939FB00D1124A453BE4FFE01A1
:10162000319601900D929A95E1F78093CB010E943B
:101630007808BFCF819FC001112484539E4F0E9420
:101640001D098823E9F0E091CA011E9FF0011124D1
:10165000E453FE4F40815181628173818481958181
:101660000E94FC068091CA0190E00196877099273C
:101670008093CA018091CA019091CB018913DACF7E
:101680002C96E3E00C94D52469857A858B859C851E
:101690000E94FC068ECF682F80910001909101017D
:1016A0000E94821C0895682F809100019091010191
:1016B0000E94851C089580910001909101010E9473
:1016C000881C089580910A028595859585950895D1
:1016D00080910A028770089590910A02977081E0C4
:1016E00009F480E008958091150208959091150203
:1016F000892B809315020895809590911502982367
:101700009093150208951092150208959091140275
:10171000892B809314020895809590911402982348
:1017200090931402089510921402089580910B0270
:10173000089508950E94990B08959091800292FF58
:1017400008C090910B02981721F080930B020E9421
:101750009A0B089580910B02882329F010920B02B6
:1017600080E00E949A0B0895CF93DF93E0910001EF
:10177000F0910101809115028083E0910001F091C8
:101780000101808190911402892B808390910B023A
:10179000992381F0E0910001F09101018081892B72
:1017A000808380910001909101010E943A1C811177
:1017B0000E94AA0BC0910001D091010148E050E0C5
:1017C00062E072E0CE010E94F524892B59F088E096
:1017D000FE01A2E0B2E001900D928A95E1F7CE0100
:1017E0000E94F51BDF91CF91089508950E94F50B9B
:1017F00008959091800292FF11C098E0899F900116
:101800001124622B60930A020E94520780910A02FF
:101810008595859585950E94F60B08950E9452073F
:10182000089510920A0280E00E94F60B08959091AC
:101830000A028095892380930A02282F277091F449
:10184000282F082E000C330B9217130659F0909195
:10185000800292FF07C08595859585950E94620755
:101860000E94110C08959091800292FB222720F98A
:10187000281769F080FB92F99093800280917F0293
:10188000909180020E947D0C82E00E94170C0895C6
:101890008091800282FB882780F991E089270E944D
:1018A000330C089581E00E94330C089580E00E947B
:1018B000330C089590E080E00E94132521E0883EDB
:1018C0009E4F09F020E0822F089582E090E00E9470
:1018D0000B25089583E090E00E940B250895CF9397
:1018E00084E090E00E940B25C82F82E290E00E94E5
:1018F0000B25982F8C2FCF910895CF93C92F682F48
:1019000084E090E00E9419256C2F82E290E00E9412
:101910001925CF910895AB01BC018FE090E00E94A2
:101920002B250895AB01BC0183E190E00E942B259B
:10193000089560E070E0CB010E94920C089560E091
:1019400070E0CB010E948B0C0E94990C089568EE08
:101950007EEF90E080E00E94372560E082E090E03A
:101960000E94192560E083E090E00E941925109202
:10197000C9011092C80160E084E090E00E9419253E
:1019800064E082E290E00E94192560E085E090E04A
:101990000E94192560E086E090E00E9419256FEF13
:1019A00087E090E00E94192540E050E0BA0188E00D
:1019B00090E00E942B2560E08DE090E00E941925C8
:1019C00040E050E0BA0188E190E00E942B2560E001
:1019D00087E190E00E94192540E050E0BA018CE1D7
:1019E00090E00E942B2570E060E080E290E00E9491
:1019F000372540E050E0BA0188E190E00E942B25B5
:101A00000E949F0C08950E94A70C0895682F8EE0F5
:101A100090E00E94192508950E944A1D60932602B5
:101A200070932702809328029093290260932202E8
:101A300070932302809324029093250208950895C1
:101A400008950E94200D089508950E94240D089580
:101A500089E090E10E94D71B0E941F0D0E94210D7A
:101A600008950E94D5110895089508950E94340D97
:101A70000E94350D08950E940C100E94EA020895FC
:101A80000E94351D0E94C90F0E94F0110E9436115C
:101A90000E943B0D0E946A160E94FA110E94250DB9
:101AA0000895AAE0B0E0E7E5FDE00C94B2240E94BE
:101AB000591188E1A82E82E0B82E750110E0F701D7
:101AC00001917F01812F0E9432101F5F1A3009F4AB
:101AD00040C00817A1F380912A0281FD0E943810AE
:101AE0000E94310DC82E10E0812F0E943210082F65
:101AF000F50181915F01081731F1F12CEE24E39497
:101B0000D02ED8268D2D8E21B1F0CC20A1F0FE82D2
:101B10001F8391E0802F8E2109F490E098870E9426
:101B20003E1D8160782F9A8789874E815F81688505
:101B30008A850E941603F394EE0CF6E0FF12E2CFC2
:101B4000F501319700831F5F1A3071F60E940C0D6A
:101B500020C00813C0CF0E943E1D8C018091160248
:101B60009091170208171907A1F08FEF89838A83D4
:101B70001B820E943E1D8160782F9D838C8349814A
:101B80005A816B818D810E94160310931702009376
:101B900016020E94D5110E946E150E94FD022A961F
:101BA000EAE00C94CE24CF93DF930E94E40EEC0184
:101BB000811521E5920708F042C0811530E59307B1
:101BC00008F09FC0883E910530F5803E910508F0F1
:101BD00094C0883A910588F4853A910508F086C04A
:101BE0008130910509F489C0009709F486C00497F3
:101BF00008F083C0D0E0C0E080C08F3B9105D0F7F3
:101C0000C85AD0E0CC0FDD1FC15ADE4F0990D881F1
:101C1000C02DD46472C0811540E2940750F4C11500
:101C200081E0D80708F069C0CD3ED10518F3D06532
:101C300064C081159044F0F2DF70D06A5EC08115F7
:101C400035E5930718F5811544E5940708F085C03C
:101C5000C11583E5D80708F06CC0C11522E5D2078D
:101C600008F462C0CE018370992721E030E002C001
:101C7000220F331F8A95E2F7C695C69580E2C89F6A
:101C8000E0011124C22BD32BDC6837C0811539E564
:101C90009307A8F4811548E5940708F063C0C115BF
:101CA00086E5D80708F0A6CF8C2F0E94860FC82F94
:101CB000D0E0DC2FCC27CC27DF71D0621EC081158D
:101CC0002AE5920708F453C090568115904208F017
:101CD00091CF8D2F8F710E94860F90E0982F8827CB
:101CE00088279F719C012C2BE901E7CFC55AD0E0D2
:101CF000C357DE4FC881D0E0D064CE01DF91CF91D1
:101D000008958370992721E030E002C0220F331F2D
:101D10008A95E2F7C695C69540E2C49FE00111247A
:101D2000C22BD32BDD68E9CFDC2FCC27C16FD06A63
:101D3000E4CFCE018370992721E030E002C0220F6A
:101D4000331F8A95E2F7C695C69540E2C49FE0012D
:101D50001124C22BD32BDA68D0CFD82FCC27C46F55
:101D6000D06ACBCFD82FCC27C06FD06AC6CF8F70A8
:101D70000E94860F34E0D695C7953A95E1F7CF706B
:101D80009C2FEC01D069B9CF972F7A30A8F4663038
:101D900098F470E026E0929F600D711D1124FB0104
:101DA0009CE3899FE00DF11D1124EE0FFF1FE45508
:101DB000FF4F85919491089580E090E008950E94EE
:101DC000C40E0E94D30D089582389105B9F1B0F484
:101DD0008133910509F47DC048F48932910509F4F5
:101DE0006DC08A32910509F47BC008958533910551
:101DF00009F45FC08933910509F10895833E910587
:101E0000D9F138F4803E910529F1823E910579F1AE
:101E10000895863E9105D9F1873E910509F43EC0AB
:101E2000843E910541F52091800221FF24C08091DC
:101E30007F0284FD19C087EE90E0089520917F0213
:101E4000237009F05AC02091800223FF14C089E258
:101E500090E0089520917F0220FD38C030918002EB
:101E600030FF09C024FF43C090E080E00895209136
:101E70007F0222FDF7CF089520917F0222FD3AC014
:101E80003091800230FD39C024FFF5CFEDCF209195
:101E90007F0223FFF0CF24FDE7CFCDCF20917F023B
:101EA00023FD2EC03091800231FFEECF84EE90E012
:101EB000089520917F0225FFDECFC9CF20917F02B8
:101EC00025FD21C02091800223FFD5CF89E390E03A
:101ED000D2CF20917F0226FFCECF8AE290E00895F4
:101EE00020917F0226FFC7CF81E390E0089583EE23
:101EF00090E0089582EE90E0089580EE90E00895DD
:101F000086EE90E0089585E390E0089590917F0239
:101F100092FF06C0282F28712830F9F4877F84604B
:101F200093FF06C0282F28712831F1F4877E846141
:101F30002091800220FF06C0382F38713830D9F444
:101F4000877F816021FF06C0282F28712831D1F4B6
:101F5000877E816194FD877E0895282F2471243027
:101F6000F9F68B7F8860DCCF282F2471243101F7AC
:101F70008B7E8861DDCF382F3171313019F78E7F3C
:101F80008860E0CF282F2171213121F78E7E886172
:101F9000E1CF10927B0210927C0210927D0210928F
:101FA0007E020895CF92DF92EF92FF926B017C0147
:101FB0000E94D51181110EC00E944A1DC61AD70A6F
:101FC000E80AF90AC0927B02D0927C02E0927D027C
:101FD000F0927E02FF90EF90DF90CF9008950F93E4
:101FE0001F930E94D511882329F00E944A1D1F913A
:101FF0000F9108950E944A1D00917B0210917C026E
:1020000020917D0230917E02600F711F821F931F0D
:10201000EECF80E0089508950E945A0C811102C00D
:102020000E94030D0E94650C80932A020E946F0C8F
:102030009093800280937F020E940B100E946A0C92
:1020400090E00E9414078091C6019091C7010E9400
:102050003507089508950E942A10089508950E9452
:102060002E100895E82FF0E0E457FD4F8081089589
:10207000089580EA8A95F1F7089500C008950E94B6
:102080003910089508950E9442100895A5E0B0E027
:10209000ECE4F0E10C94B6240E94D511F82E609186
:1020A0009602882309F440C085E0E82E8E010F5F78
:1020B0001F4FF8018E2D11928A95E9F7862F90E037
:1020C000B80184579D4F0E9408128823B9F080916F
:1020D000810290E045E050E0B80184579D4F0E9496
:1020E000F52421E020932B02892B91F4F12C0E94FE
:1020F00067028F2D2596E6E00C94D22480912B0266
:102100008823A1F3F8011192EA94E9F710922B02C7
:10211000A0918102B0E0A457BD4F85E0F801019085
:102120000D928A95E1F7E3CF70E064577D4F80917F
:10213000810290E084579D4F0E948F120E944310AD
:10214000D8CFF894E82FE295EF70F0E031A1282F76
:102150002F7081E090E001C0880F2A95EAF7982F50
:102160009095932391A392A1892B82A378940895AB
:102170000F931F93CF93DF93C6E9D1E089918F3FEF
:1021800011F00E94A11081E0CB39D807B9F7C0E95E
:10219000D1E006E911E089918F3F11F00E94A11072
:1021A0000C171D07C1F7DF91CF911F910F91089573
:1021B000B0E0A0E0EEEDF0E10C94B424EC01D62EFA
:1021C000062F10E0C8018A569E4F7C01FC018081D9
:1021D0008F3F09F444C0F894E82FE295EF70F0E0E7
:1021E00091A18F7021E030E001C0220F8A95EAF7BB
:1021F000892F822B81A382A12095282322A3789462
:102200000E943D10E0E9F1E031E0C12C21912F3F27
:1022100059F1A22FA295AF70B0E090968C9190E00A
:102220002F7002C0959587952A95E2F780FD1CC016
:10223000832FC82A330F81E0E639F80739F7F70111
:1022400080818F3F11F00E94A11061E0C11001C098
:1022500060E08D2D0E943F10C00FD11FC882CDB706
:10226000DEB7E8E00C94D02480E0E3CF8091020157
:102270008091020195E0811190E09093960285E0B3
:10228000891B809381020E94B8108AE0ECE8F2E09A
:10229000DF01982F1D929A95E9F7E2E8F2E0DF015D
:1022A0001D928A95E9F785E00E9497110E946402C9
:1022B0000895AAE0B0E0EFE5F1E10C94B7248E01B7
:1022C0000F5F1F4F8AE0F80111928A95E9F7F12C10
:1022D0006F2DC8010E94D810F394F5E0FF12F8CFDB
:1022E0004AE050E0B80182E892E00E94F52421E043
:1022F000009709F420E0892B41F08AE0F801A2E878
:10230000B2E001900D928A95E1F76091960270E03B
:1023100064577D4F45E082E892E00E949811182FA3
:102320000E944610812B2A96E5E00C94D324089550
:10233000CF92DF92EF92FF920F931F93CF936C0196
:102340007B01042F222349F081E080932E020E941A
:102350003E1D90932D0280932C02C0912E02C1113C
:102360000AC0C0E08C2FCF911F910F91FF90EF908A
:10237000DF90CF90089580912C0290912D020E94C1
:10238000561D059770F310E0A801B601C7010E9421
:10239000F524892B41F0A801B601C7010E9402254E
:1023A00010922E02DFCFC0E0FBCF8091310281116D
:1023B00007C00E948324882351F081E0809331027A
:1023C00081E090913102913009F080E0089582E03F
:1023D000809331020E947E24F3CF0E94D51108958C
:1023E0000E94ED11809302010E94D51181110E947B
:1023F0003E1208950E94D511811102C00E9441121F
:10240000089581E0909132029A3008F080E00895BA
:102410000F931F93CF93DF93EC018B0180913202D6
:102420008A30B8F4B801CE010E948C12C82F8111F5
:1024300022C0809132028F3FB9F40E943E1D9093DA
:10244000300280932F028C2FDF91CF911F910F913B
:10245000089580912F02909130020E94561D843F72
:10246000914000F7C0E0EFCF8F5F809332028A3057
:1024700020F7C1E0E8CF10923202E5CF0E94751A32
:1024800008950E94781A0895B0E0A0E0EAE4F2E12D
:102490000C94B5247901C82F880FDD0B4115510527
:1024A000A9F0FE0193E0EE0FFF1F9A95E1F7ED5FB3
:1024B000FE4F818192818D5C9D4F208130E04217DB
:1024C000530708F49A01A9010E940225CE010E9437
:1024D000611BD82E8823D1F001151105B9F083E0D6
:1024E000CC0FDD1F8A95E1F7FE01ED5FFE4F4381C2
:1024F00050E00417150708F4A801CD5FDE4F6C818A
:102500007D816D5C7D4FC7010E9402258D2DCDB769
:10251000DEB7E7E00C94D1240E947E1308950E9458
:1025200095130895A4E0B0E0E8E9F2E10C94B82432
:1025300060914A0270914B0280914C0290914D0241
:102540000E94651D11E0643671058105910518F141
:102550000E94EF0F6E5F7F4F8F4F9F4F69837A838B
:102560008B839C8310E000E030E020E044E050E00A
:10257000BE016F5F7F4F82E00E944412182F8823B4
:1025800051F00E944A1D60934A0270934B0280935F
:102590004C0290934D02812F2496E4E00C94D424B5
:1025A000B0E0A0E0E6EDF2E10C94B2247C015B0126
:1025B0006A010E94011201E010E0882311F00AE094
:1025C00010E0C1E0D0E0B501C701F6010995811125
:1025D00004C021960C171D072CF4CDB7DEB7EAE036
:1025E0000C94CE24CC9F9001CD9F300D300D112442
:1025F00090E080E045E34A95F1F7000001968217EC
:102600009307C1F7E0CFA6E0B0E0E9E0F3E10C9476
:10261000B2247B01C0909B01D0909C0101E010E0AE
:102620009E012A5F3F4F50E040E070E060E080E0B4
:102630000E944412182F882309F448C056018FEFD6
:10264000A81AB80A60914602709147028091480228
:10265000909149020E94651D6436710581059105BE
:1026600068F105E010E09E012F5F3F4F50E040E031
:1026700070E060E081E00E944412D82E65E070E0D6
:10268000C5010E946B1611E09E81981310E01D2178
:1026900041F10E944A1D6093460270934702809365
:1026A00048029093490285E0FE013196A1E4B2E030
:1026B00001900D928A95E1F711E013C065E070E09A
:1026C000C5010E946B169E818913CBCF85E0F60170
:1026D0003196DE01119601900D928A95E1F7111164
:1026E000E2CF85E0E1E4F2E0D70101900D928A9516
:1026F000E1F7812F2696EAE00C94CE240F931F93E6
:10270000CF93DF93EC018B0143E053E10E94D012A1
:10271000882331F042E952E1B801CE010E94D01283
:10272000DF91CF911F910F9108950F931F93CF9336
:10273000DF93C0919B01D0919C01CE01019625E0D1
:10274000FB01DC0101900D922A95E1F765E070E054
:102750000E946B1688836E817F81888599850091A0
:102760003D0210913E0220913F02309140026017DD
:1027700071078207930751F060933D0270933E0208
:1027800080933F02909340020E94D20FDF91CF913D
:102790001F910F9108950E94591F0E94400D0E94A1
:1027A000661F08950E946B1F0E94510D0E94851F95
:1027B00008950E94D71C0E943F1F0E94280D0E946E
:1027C000CB130E94D2130E94360DFBCF809156028C
:1027D00080FF0DC060911F0170E0660F771F6038A9
:1027E000710570F56115710569F1862F089581FFF6
:1027F00007C060911F0184E0689FB0011124EFCFF2
:1028000060911F0182FD0AC0809155028823A9F0C2
:1028100020911E0160911F01821710F088E0ECCF1B
:10282000869FC001112433E0880F991F3A95E1F784
:10283000622F70E00E949024D2CF68E070E0D5CF84
:102840008FE7089581E008958091560280FF0CC0C3
:1028500060911C0170E07595679575956795611598
:10286000710549F1862F089581FF06C060911C0112
:1028700070E075956795F3CF60911C0182FD0BC0E8
:10288000909154029923A1F060911B0180911C0149
:10289000961738F0682F70E06038710500F38FE705
:1028A0000895899FC001112470E00E949024F4CF04
:1028B00061E070E0D7CF81E008958D3E31F40E9451
:1028C000E613819580935A0208958E3E19F40E9472
:1028D000E613F8CF8F3E31F40E94E6138195809382
:1028E00059020895803F19F40E94E613F8CF893FFA
:1028F00029F40E94241480935B0208958A3F21F4F6
:102900000E9424148195F7CF8B3F31F40E94241448
:10291000819580935C0208958C3F19F40E942414E1
:10292000F8CF9FE0980F983070F4815F990B21E009
:1029300030E001C0220F8A95EAF780915802822B7D
:102940008093580208958D3F31F480915602816042
:102950008093560208958E3F21F480915602826042
:10296000F7CF8F3FB9F7809156028460F1CF409145
:1029700059028D3E59F480915A0287FF0DC0109282
:102980005A0241110BC01092550208C08E3E81F4CC
:1029900080915A0218169CF3442381F080915B02C7
:1029A00090915C02892B09F05AC01092540208954C
:1029B0008F3E49F447FFF0CF1092590280915A029E
:1029C0008111ECCFE0CF803F19F41416ACF3E4CFC3
:1029D00090915B02893F29F41916F4F610925B027C
:1029E000DBCF8A3F19F497FFD7CFF8CF90915C02E5
:1029F0008B3F29F497FFD0CF10925C02CDCF8C3F54
:102A000019F41916CCF3C8CF9FE0980F983090F4C2
:102A1000815F990B21E030E0B90102C0660F771F9A
:102A20008A95E2F7CB018095909158028923809393
:102A30005802B2CF8D3F31F4809156028E7F809341
:102A40005602AACF8E3F21F4809156028D7FF7CF98
:102A50008F3F09F0A1CF809156028B7FF0CF089570
:102A60000E943E1D9C019091590280915A02982B20
:102A700021F0309353022093520290915B02809197
:102A80005C02982B21F0309351022093500287E58D
:102A900092E00E94001C089586E0E7E5F2E0DF0185
:102AA0001D928A95E9F710925502109254021092E5
:102AB00056020895FC01828181110EC0838181112B
:102AC0000BC08481811108C091E08581811101C012
:102AD00090E0892F8170089581E0FCCFA6E0B0E0FE
:102AE000E4E7F5E10C94B92486E0E7E5F2E0DE01E5
:102AF000119601900D928A95E1F710925902109269
:102B00005A0210925B0210925C028B819C81892B8D
:102B100089F080915202909153020E94561DAC019F
:102B2000909155029923C9F18091200184171506CF
:102B300008F440C08D819E81892B91F080915002D4
:102B4000909151020E94561DAC019091540299231C
:102B500009F471C080911D018417150608F479C02D
:102B6000BE016F5F7F4F87E592E00E948F1C81114D
:102B700005C087E592E00E945A1581110E94301528
:102B800086E0FE013196A7E5B2E001900D928A95AC
:102B9000E1F72696E3E00C94D52420914F028AE0D9
:102BA000289F900111242417350720F69F5F9093EA
:102BB000550202C09F3FD1F71B81112359F00E949B
:102BC000E6139FEF11160CF491E0899F802D1124DC
:102BD000809359021C81112359F00E94E6139FEF44
:102BE00011160CF491E0899F802D112480935A02D4
:102BF00030915902332309F49DCF20915A022223A8
:102C000009F498CF45EB3403C0011124992359F0FE
:102C10009093590245EB240390011124332339F09A
:102C200030935A0287CF81E080935902F3CF81E03D
:102C300080935A027FCF20914E028AE0289F900114
:102C400011242417350708F08BCF9F5F909354020F
:102C500002C09F3FD1F71D81112359F00E94241417
:102C60009FEF11160CF491E0899F802D1124809321
:102C70005B021E81112359F00E9424149FEF11164C
:102C80000CF491E0899F802D112480935C02309197
:102C90005B02332309F464CF20915C02222309F400
:102CA0005FCF45EB3403C0011124992359F0909371
:102CB0005B0245EB240390011124332339F0309358
:102CC0005C024ECF81E080935B02F3CF81E0809382
:102CD0005C0246CF0895FC01680F791F8FEF91E3E6
:102CE000E617F70709F408952191822728E030E0DC
:102CF00087FF06C0880F892721503109C9F7F0CF17
:102D0000880FFACFCF93DF93EC01FB0182818823F8
:102D100009F464C1C430FDE5DF07E0F5CB3F9CE575
:102D2000D90730F49E0122503C4524313105D8F5B5
:102D30000E946F0C9093800280937F02C231ECE579
:102D4000DE0709F41FC108F06EC0C9308CE5D80752
:102D500009F4F2C008F03FC0C530ECE5DE0709F425
:102D6000DBC058F5C3308CE5D80709F4CDC008F0B6
:102D7000CFC080917F028160C230DC4509F4AEC0D3
:102D800080917F02909180020E947D0C0E94BF067C
:102D900080E009C0C63AEDE5DE0751F238F4C236EC
:102DA0009DE5D90729F2DF91CF9108959E012E5A12
:102DB0003D4523303105B8F7BBCF80917F0280625B
:102DC000C730FCE5DF0709F489C008F4B1C0809181
:102DD0007F02806483C0CD309CE5D90709F4BAC076
:102DE00070F480917F028E7FCB30FCE5DF0709F421
:102DF00075C008F4A7C080917F028D7F6FC0CF306F
:102E00009CE5D90709F4B6C008F4A8C0C031FCE5B8
:102E1000DF0709F4B3C0C131DC4509F0B1CF8091BF
:102E20007F028F7B5BC0C1159DE5D90709F4B4C053
:102E300098F5CB3FFCE5DF0709F472C0B8F4C43164
:102E40009CE5D90709F4B6C008F4A2C0C531DC4539
:102E500009F096CF80917F0282FB992790F921E0BB
:102E6000922790FB82F990FB83F938C0CD3F8CE527
:102E7000D80709F477C008F457C0CE3FECE5DE0769
:102E800009F474C0809180028360CF3FDC4509F073
:102E900077CF8093800274CFC2368DE5D80709F4CE
:102EA00096C068F4C230EDE5DE0709F48CC008F482
:102EB00077C0C330DD4509F063CF80E085C0CE3AEE
:102EC0009DE5D907E9F068F490917F02892F8E7F04
:102ED00090FF8160C63ADD4509F052CF80937F02B2
:102EE0004FCFCF3A8DE5D80789F1C03BDD4509F0DA
:102EF00047CF90918002892F877F93FF8860C9CF49
:102F0000809180028860C5CF80917F028260E6CF89
:102F100080917F028460E2CF80917F028860DECF63
:102F2000809180028160B5CF809180028260B1CFB4
:102F300080917F028061D2CF0E94BF0680917F0284
:102F40008068CCCF80917F028C60C8CF8091800256
:102F5000877F9FCF80917F028B7FC0CF80917F0240
:102F6000877FBCCF809180028E7F93CF809180023B
:102F70008D7F8FCF80917F028F7EB0CF80917F0237
:102F80008F7DACCF0E94BF0680917F028F77A6CF46
:102F900080917F02837FA2CF809180028C7F79CF46
:102FA00080918002982F909591708E7F892B90FB55
:102FB00081F96FCF0E94BF0690917F02892F97FB06
:102FC00087F980588BCF81E00E94060DD9CE909171
:102FD0007F02892F8F7E94FF806180CF81E0E3CED6
:102FE0008B3109F465C040F58B3071F078F4863090
:102FF00009F447C020F4853059F180E00895873006
:1030000009F448C08830C9F781E00895803109F497
:103010005DC068F48E3089F790912A02892F8B7FEA
:1030200092FF846080932A0282FD4CC0EDCF8631EE
:1030300059F3893149F3E1CF8A3201F160F48732E3
:10304000B1F020F48E31C8F28D514CC08932A9F60E
:103050000E947902D9CF833440F48A3308F041C00A
:10306000853329F0883381F2C8CF833431F681E08B
:1030700090E00E9414070E94BF06C6CF0E94030D75
:10308000C3CF80912A02807F80932A0281E08093BF
:103090006002089590912A02892F8E7F90FF8160AF
:1030A00080932A0280FDB0CF817F80932A02ACCF2B
:1030B00090912A02892F8D7F91FF826080932A024E
:1030C00081FFA2CF80912A028160EFCF90912A02E6
:1030D000892F877F93FF886080932A0283FDF2CF38
:1030E00093CF895321E030E0A90102C0440F551F5E
:1030F0008A95E2F7CA01BDCF80E008950E947C184E
:103100000895CF93C82F809160028130B9F0882351
:1031100031F08230A1F11092600280E00DC00E9477
:10312000730B8232D1F78C2F0E947C1881111BC047
:103130008C2F0E94F0178170CF9108950E94730B1D
:10314000823289F38C2F0E947E1881110AC0C4310B
:1031500099F060F4CB3029F0C03169F782E08093B8
:10316000600281E0E8CF81E090E0E5CFC93221F054
:10317000C833B9F380E0DFCF10926002FBCFC932D1
:1031800009F43FC0E8F4C431E1F128F4C73009F490
:103190005BC081E0D1CF82EE8C0F8A30D0F7CD5169
:1031A000C0935F02C33009F446C0B0F5C13009F4E2
:1031B0003FC080E291E0C230B1F110925F02E9CFEE
:1031C000C03509F452C0B8F48AE0CF3411F7E09169
:1031D0005D02F0915E023097E1F22081082E000C32
:1031E000990B820F911D8F3F910509F00CF441C09E
:1031F0008FEF8083CECFC135D1F181E0C23539F375
:103200009BCF80915F02882321F210925F0210927F
:103210005E0210925D02BDCFC53099F078F08BE16F
:1032200091E0C63051F690935E0280935D02B1CF7B
:103230008FE492E0F8CF8FE191E0F5CF8EE191E05D
:10324000F2CF8CE191E0EFCF10924F0284E18093B6
:103250002001C0931F018CE380931E0188E08093BE
:103260001C0188E280931B0194CF86EFB0CF8FEFD3
:10327000AECF97FFBECF10828CCFCF93DF93EB0101
:1032800086319C4511F50E94730B9A81992399F020
:103290008A7A91E009F490E090936102811109C06B
:1032A00089E20E944B0B0E94B40B80E0DF91CF912A
:1032B000089585E3F6CF80916102811104C089E20F
:1032C0000E94530BF0CF85E3FBCF81E0EFCF0F934C
:1032D0001F93CF93DF93C42FD22FFC0182818823C9
:1032E000C9F0409364020E943E1D90936302809354
:1032F000620280E28C0F883040F4C77081E001C028
:10330000880FCA95EAF70E946104DF91CF911F915F
:103310000F91089510916402141332C080916202DB
:10332000909163020E94561D883C910548F5C0E2C9
:10333000CD0F1D17B9F080E2810F883040F417706F
:1033400081E001C0880F1A95EAF70E946804C8302E
:1033500048F481E09D2F977001C0880F9A95EAF795
:103360000E946104802F0E945804C83070F6D77004
:1033700081E001C0880FDA95EAF70E946804C5CFA2
:1033800080E28C0F883008F6C77081E001C0880F9A
:10339000CA95EAF7F2CF0F939C01CB01243F4CE58D
:1033A000340759F1A8F4293DFCE53F0701F12A3D16
:1033B0004CE53407D1F1283D3C4591F406E221EE7D
:1033C00041EE68ED7CE50E94671980E00F91089559
:1033D000263FFCE53F07E9F0B0F0273F3C45F9F018
:1033E000FC018281882339F110926402EFCF07E259
:1033F00025EE45EE69ED7CE5E6CF06E221EE40EEF6
:1034000064EF7CE5E0CF07E225EE44EE65EF7CE576
:10341000DACF06E221EE42EE66EF7CE5D4CF07E29A
:1034200025EE46EE67EF7CE5CECF08E221E045EEE3
:103430006AED7CE5C8CF81E0C9CF8EE1489B02C030
:103440008150E1F7489BFECF0895589880E28A9515
:10345000F1F7589A0895FC013BE03A95F1F798E0AE
:1034600020E080E031E040E14A95F1F7880F489B89
:1034700002C08160232742E04A95F1F7000040E155
:103480004A95F1F7915079F790E19A95F1F799B152
:1034900032E03A95F1F7000040E14A95F1F791707A
:1034A00092272081920F90830895A1E0B0E0EBE590
:1034B000FAE10C94B62419828C017C01E60EF11C11
:1034C0000E151F0541F481E09981911180E021964C
:1034D000E6E00C94D2240E941D1ACE0101960E94AF
:1034E0002B1AF80181938F01EBCF509A589A0895C7
:1034F0005098589AE89AE9E6F0E080818C7F8083C2
:1035000008956150770B91E001C0990F6A95EAF731
:1035100020E031E0911108C0222391F0589A80E216
:103520008A95F1F758980895492F482339F0589A09
:10353000232740E24A95F1F79695ECCF5898F9CFBA
:103540005898EDCFFF920F931F93CF93DF93EC0129
:103550008C01060F111DC017D10729F4CDB7DEB7B6
:10356000E5E00C94D324F9900E94251A68E08F2D91
:103570000E94811AF0CF1F920F920FB60F92112462
:103580000F931F932F933F934F935F936F937F936B
:103590008F939F93AF93BF93EF93FF93CF93DF935B
:1035A0000F92CDB7DEB719820E941D1ACE01019687
:1035B0000E942B1A082F069506950695282F22950E
:1035C0002570902F9570290F922F93702695269530
:1035D000920F982797708981982B09F05CC004306E
:1035E00008F059C080E18A95F1F7589A509A82E024
:1035F0008A95F1F700C0589888E0089F800111244F
:10360000D801AD5FBE4F1696ED91FC91179730979C
:10361000A9F060919B0170919C0114962D913C91B1
:103620001597260F371F11968D919C911297680F51
:10363000791F13964C9113978C910995F801ED5FC2
:10364000FE4F6381662351F020919B0130919C01D4
:1036500084819581820F931F0E94A21A0E94251ACD
:1036600080E18A95F1F758985098589A80E18A95A8
:10367000F1F7F801ED5FFE4F6081662351F0209174
:103680009B0130919C0181819281820F931F0E9446
:10369000551A0E941D1A0F90DF91CF91FF91EF9163
:1036A000BF91AF919F918F917F916F915F914F915A
:1036B0003F912F911F910F910F900FBE0F901F9070
:1036C00018950F931F93CF93DF93EC0104970CF0A1
:1036D0004CC0F894509A589885E08A95F1F700000C
:1036E0009C2F969595708C2F8570980F892F8370DD
:1036F0009695969523E0CC0FDD1F2A95E1F7980F5C
:103700008E01092B0E94251A00C068E0802F0E94BC
:10371000811A80E18A95F1F75098589A489B1EC00B
:1037200087E090E048991CC0FE01ED5FFE4F638189
:103730006623F9F020919B0130919C018481958151
:10374000820F931F0E94551A811113C0509A589AE4
:103750007894DF91CF911F910F91089500C0DECF33
:10376000019729F4509A589A789480E0F2CF00C0DB
:10377000D9CF0E941D1A80E28A95F1F75898509A85
:1037800080E18A95F1F7CD5FDE4F6881662351F0C5
:1037900020919B0130919C0189819A81820F931F16
:1037A0000E94A21A0E94251A789481E0D2CF9093A9
:1037B0009F0180939E01089590936B0280936A020B
:1037C00008950E94D511811103C08091650208956A
:1037D000E0916A02F0916B02309729F00190F0813C
:1037E000E02D0995089580E00895E0916A02F09136
:1037F0006B02309721F00280F381E02D0995089546
:10380000E0916A02F0916B02309739F022E0DC011E
:103810002C930480F581E02D09950895209168028C
:10382000309169022817390771F0909369028093EB
:103830006802E0916A02F0916B02309721F00680F5
:10384000F781E02D09950895209166023091670275
:103850002817390771F09093670280936602E09110
:103860006A02F0916B02309721F00084F185E02D1F
:10387000099508959C012E5F3F4FAC01485F5F4F53
:1038800080E02417350709F40895F90191919F010B
:103890009923B9F38F5FF5CF662349F0FC01329687
:1038A00008962191261729F0E817F907D1F780E04B
:1038B000089581E008959C01FC0132969FEF80E01D
:1038C0004191461751F09F3F19F4411101C0982FC3
:1038D0008F5F8630A9F79F3F09F40895290F311DA6
:1038E00097FD3A95F90162830895FC013296089696
:1038F0002191261303C0DF0111971C92E817F907E5
:10390000B9F708950E945B1C08950E94751C0895E4
:10391000029626E0FC0111922A95E9F7089546E007
:1039200050E00E94F52421E0892B09F420E0822F49
:10393000089508950E94991C0895811106C081E0A0
:1039400080936C020E949A1C089582E0F9CF83E074
:1039500080936C020E949A1C08950E949D1C0895F9
:1039600081E080936C020E949A1C08950E94B01C12
:103970000895089508950E94BA1C08950895089521
:103980000E94B91C0895CF930E94BE1C0E94591139
:103990000E94BF1CC0E08C2F0E943210811105C014
:1039A000CF5FCA30C1F7CF91089581E0FCCF85B7D2
:1039B000806885BF85B7806885BF08951F921FB650
:1039C0001F9211248F939F93AF93BF9380916D02A9
:1039D000811113C08091970290919802A091990251
:1039E000B0919A024196A11DB11D809397029093C8
:1039F0009802A0939902B0939A02BF91AF919F91C0
:103A00008F911F901FBE1F90189580919F02843048
:103A100031F10E94D70210926D0288E190E020E41B
:103A20000FB6F894A895809360000FBE20936000B5
:103A300083B7817F846083BF83B7816083BF7894BD
:103A4000889583B78E7F83BF0FB6F894A895809131
:103A50006000886180936000109260000FBE08953E
:103A60000E94BF060E94DC02089582E084BD93E0BC
:103A700095BD9AEF97BD80936E0008952FB7F89487
:103A80008091970290919802A0919902B0919A0228
:103A90002FBF08952FB7F894609197027091980204
:103AA0008091990290919A022FBF08959C014FB77F
:103AB000F8948091970290919802A0919902B09108
:103AC0009A024FBF821B930B0895CF92DF92EF9221
:103AD000FF922FB7F894C0909702D0909802E09090
:103AE0009902F0909A022FBFA7019601261B370B6F
:103AF000480B590BCA01B901FF90EF90DF90CF90AE
:103B0000089578941F921FB61F9211248F939F934C
:103B1000AF93BF938091970290919802A0919902E0
:103B2000B0919A020196A11DB11D809397029093C6
:103B30009802A0939902B0939A02BF91AF919F917E
:103B40008F911F901FBE1F90189587E797E790935E
:103B500001088093000888E19AE00FB6F894A895D0
:103B6000809360000FBE90936000FFCF88E19AE0E1
:103B70000FB6F894A895809360000FBE90936000F4
:103B8000FFCF80917902089508959C0182E080938F
:103B9000E9009FEF8091E800915085FD06C085ED1A
:103BA0008A95F1F700009111F5CF8091E80085FF2B
:103BB0000CC050E040E066E070E0C9010E94F71FD1
:103BC0008091E8008E778093E8000895CF93DF938B
:103BD000EC0181E08093E9008FEF9091E800815043
:103BE00095FD06C095ED9A95F1F700008111F5CF8E
:103BF0008091E80085FF14C050E040E068E070E08C
:103C0000CE010E94F71F8091E8008E778093E80034
:103C100088E0FE01A1E7B2E001900D928A95E1F7FC
:103C2000DF91CF91089580936E027093700260933C
:103C30006F0280919F02843001F582E08093E90059
:103C40008FEF9091E800815095FD06C095ED9A9513
:103C5000F1F700008111F5CF8091E80085FF0DC0DC
:103C600050E040E063E070E08EE692E00E94F71FD3
:103C70008091E8008E778093E8000895BC0184E08D
:103C80000E94131E0895BC0183E00E94131E089534
:103C900080919E02811109C00E9487210E94E42127
:103CA0008091E20084608093E200089510929E0269
:103CB00008950E94B01C089560919B0281E06111FB
:103CC00001C080E00E94A71C089590919F0281E0AE
:103CD000943009F080E060919B020E94AD1C089531
:103CE00042E061EC81E00E94032142E261EC82E06B
:103CF0000E94032190919F0281E0943009F080E0BE
:103D000060919B020E949D1C08958091A1028330C6
:103D100009F461C030F48130D1F1823009F49EC0E1
:103D200008958A3009F48AC08B3009F46FC0893055
:103D300009F050C08091A002813209F04BC08091FF
:103D4000A4029091A502029708F044C08091E80077
:103D5000877F8093E8008091E80082FF37C09091D0
:103D6000F3008091F200029731F48091F1008130EC
:103D700011F0863021F48091F100809379028091D6
:103D8000E8008B778093E8000E94372123C0809160
:103D9000A002813AF9F48091E800877F8093E800DF
:103DA0008091A4029091A502892B61F468E081E7DB
:103DB00092E070E00E9446208091E8008B7780932B
:103DC000E800089560E090E080E0F3CF80919F02EA
:103DD0008111C1CF08958091A002813AD9F78091D5
:103DE000A4029091A502892BA9F78091E800877F12
:103DF0008093E8008091E80080FFFCCF80912D0146
:103E00008093F1008091E8008E77BCCF8091A00272
:103E1000813201F78091A4029091A502892BD1F6FD
:103E20008091E800877F8093E8000E94372180918D
:103E3000A20280932D010E94BF0608958091A002E6
:103E4000813241F68091E800877F8093E8000E94EC
:103E500037218091A30280937A0208958091A00275
:103E6000813A09F0B7CF8091E800877F8093E8001E
:103E70008091E80080FFFCCF80917A02C1CF84B7A7
:103E8000877F84BF0FB6F894A89580916000886101
:103E900080936000109260000FBE80E890E00FB643
:103EA000F89480936100909361000FBE0E94B61C4D
:103EB00008950E9487210E94E421E2EEF0E08081D3
:103EC0008460808378940E946324089581E291E065
:103ED0000E94DC1B089580919F02853031F480910F
:103EE0009F02853019F00E94301D08950E94051D23
:103EF00080919D02882399F30E94C31C882379F343
:103F00000E94E11F0E94BF06EACF08950E94891F08
:103F10000895292F33272330310519F168F4213012
:103F2000310509F444C02230310509F445C090E060
:103F300080E030E020E025C02132310549F1223215
:103F40003105A9F780E490E02CEA33E061157105B2
:103F5000C1F08BE790E021E333E06130710589F037
:103F6000E6CF99278130910581F0009729F00297DB
:103F7000F1F6ECE8F2E002C0E0EEF2E0849190E0CD
:103F80009F01FA01318320830895E0EDF2E0F6CF3E
:103F900089E090E026EF32E06115710591F389E048
:103FA00090E02FE033E06130710559F3C0CF82E13A
:103FB00090E02FE133E0E5CF8BE390E024EE32E0B8
:103FC000E0CF80E189BD82E189BD09B400FEFDCF6B
:103FD0008091D8008F7D8093D8008091E00082602E
:103FE0008093E0008091E00081FDFCCF0895AF92C6
:103FF000BF92CF92DF92FF920F931F93CF93DF93E5
:104000006C01EB018A010E945621F82E811123C018
:104010000115110539F0F80180819181C81BD90B78
:10402000C80ED91EB12CA12C2097A9F08091E800D0
:1040300085FD22C08091E8008E778093E80001150D
:104040001105A1F0F80180819181A80EB91EB182FD
:10405000A08285E0F82E8F2DDF91CF911F910F91D7
:10406000FF90DF90CF90BF90AF9008950E945621AF
:104070008823D1F2F82EEFCFF60181916F01809362
:10408000F1002197FFEFAF1ABF0ACECFFC0180915C
:10409000A6029091A70286179707A0F061157105F7
:1040A00029F49091E8009E779093E80090E06115E4
:1040B000710551F4911108C08091E80082FF34C06D
:1040C00080E00895BC01F2CF80919F028823C1F166
:1040D0008530C1F18091E80083FD30C08091E80017
:1040E00082FDEACF8091E80080FFE1CF8091F3006C
:1040F0002091F200382F6115710519F02830310533
:1041000058F091E02830310509F090E02091E80066
:104110002E772093E800CBCF81918093F1006150FE
:1041200071092F5F3F4FE7CF80919F02882341F0B5
:10413000853041F08091E80083FFBECF81E0089593
:1041400082E0089583E00895FC018091A602909199
:10415000A70286179707A0F06115710529F48091D1
:10416000E8008E778093E80090E06115710551F4C6
:10417000911108C08091E80082FF35C080E0089569
:10418000BC01F2CF80919F028823C9F18530C9F12B
:104190008091E80083FD31C08091E80082FDEACF84
:1041A0008091E80080FFE1CF8091F3002091F20040
:1041B000382F6115710519F02830310558F091E05C
:1041C0002830310509F090E08091E8008E778093E7
:1041D000E800CBCF84918093F10031966150710952
:1041E0002F5F3F4FE6CF80919F02882341F08530BB
:1041F00041F08091E80083FFBDCF81E0089582E027
:10420000089583E00895982F973028F08F70809359
:10421000E90081E008959093E900242F762F50E083
:10422000981731F07091EC002091ED005091F00062
:1042300021FD02C09F5FE8CF3091EB003E7F3093BD
:10424000EB003091ED003D7F3093ED003091EB00BD
:1042500031603093EB007093EC002093ED005093AD
:10426000F0002091EE0027FDE5CF80E008958091D9
:10427000A00287FF13C08091E80082FF06C08091F2
:10428000E8008B778093E80004C080919F02811141
:10429000F2CF089580919F028823D9F38091E8009E
:1042A00080FFF8CF8091E8008E77ECCF2091E4007A
:1042B0003091E50095E6A9012091EC00822F8170F4
:1042C00020FF06C08091E80080FF06C080E00895CE
:1042D0002091E80022FD1AC080919F02882389F076
:1042E000853089F08091EB0085FD0FC02091E400BE
:1042F0003091E50042175307F9F29150E1F684E05E
:10430000089582E0089583E0089581E008950E9471
:10431000F6210E94FE21E0EEF0E080818160808342
:10432000E8EDF0E080818F77808319BCA7EDB0E0E5
:104330008C918E7F8C9380818F7E808310929E02E1
:1043400008950F931F93CF93DF930E94F6210E944D
:10435000FE21C8EDD0E088818F77888388818068CE
:10436000888388818F7D888319BC10929F02109268
:104370009B0210929D0210929C0200EE10E0F80148
:1043800080818B7F808388818160888342E060E0C8
:1043900080E00E940321E1EEF0E080818E7F808347
:1043A000E2EEF0E08081816080838081886080839C
:1043B000F80180818E7F8083888180618883DF918E
:1043C000CF911F910F910895E8EDF0E080818F7EED
:1043D0008083E7EDF0E080818160808384E082BFAC
:1043E00081E080939E020E94A1210895E8EDF0E013
:1043F00080818E7F80831092E20008951092DA000F
:104400001092E10008951F920F920FB60F9211249F
:104410002F933F934F935F936F937F938F939F93CC
:10442000AF93BF93EF93FF938091E10082FF0BC0A6
:104430008091E20082FF07C08091E1008B7F809332
:10444000E1000E9462248091DA0080FF19C080910F
:10445000D80080FF15C08091DA008E7F8093DA004B
:104460008091D90080FF96C080E189BD82E189BD3D
:1044700009B400FEFDCF81E080939F020E94481E98
:104480008091E10080FF19C08091E20080FF15C09B
:104490008091E2008E7F8093E2008091E200806153
:1044A0008093E2008091D80080628093D80019BC8C
:1044B00085E080939F020E945C1E8091E10084FF52
:1044C0002BC08091E20084FF27C080E189BD82E19A
:1044D00089BD89B5982F917080FFFBCF8091D8005E
:1044E0008F7D8093D8008091E1008F7E8093E100E2
:1044F0008091E2008F7E8093E2008091E2008160F3
:104500008093E20080919B02882309F449C084E0F3
:1045100080939F020E94651E8091E10083FF29C065
:104520008091E20083FF25C08091E100877F809326
:10453000E10082E080939F0210929B028091E10053
:104540008E7F8093E1008091E2008E7F8093E20075
:104550008091E20080618093E20042E060E080E0D0
:104560000E9403218091F00088608093F0000E94F7
:10457000591EFF91EF91BF91AF919F918F917F91C4
:104580006F915F914F913F912F910F900FBE0F90C0
:104590001F90189519BC10929F020E94561E70CF52
:1045A0008091E30087FD93E090939F02B3CF1F9229
:1045B0000F920FB60F9211242F933F934F935F9357
:1045C0006F937F938F939F93AF93BF93CF93DF931B
:1045D000EF93FF93D091E900DF708091EC00C82F3A
:1045E000C17080FDC0E81092E9008091F000877FE3
:1045F0008093F00078940E941B231092E900809130
:10460000F00088608093F000CD2BCF70C093E9005C
:10461000FF91EF91DF91CF91BF91AF919F918F91DA
:104620007F916F915F914F913F912F910F900FBEAE
:104630000F901F901895AAE2B0E0E1E2F3E20C942B
:10464000B92480EA92E02091F100FC012193CF018E
:10465000F2E0883A9F07B9F70E94851E8091E80032
:1046600083FF1EC18091A0029091A1029A3008F0B0
:1046700017C1E92FF0E0E55AFA4D0C94A4248038D4
:1046800099F0823809F00CC18091A4028F708730B4
:1046900008F006C18093E9008091EB0085FB882734
:1046A00080F91092E90006C080919C0290919D02D1
:1046B000911182609091E800977F9093E800809339
:1046C000F1001092F1008091E8008E77E5C0882318
:1046D00009F4D3C0823009F0E3C08091A2028111B5
:1046E000D6C08091A4028F702FEF280F263008F0DB
:1046F000D7C08093E9002091EB0020FFC8C0933021
:1047000031F48091EB0080628093EB00C0C0909107
:10471000EB0090619093EB0021E030E001C0220FAC
:104720008A95EAF72093EA001092EA008091EB0064
:104730008860EACF8111B4C01091A2021F778091E6
:10474000E3008078812B8093E3008091E800877FED
:104750008093E8000E9437218091E80080FFFCCF21
:104760008091E30080688093E30082E0111183E090
:1047700080939F0295C08058823008F091C080914C
:10478000A2029091A3028C3D23E09207A1F583E061
:104790008A838AE289834FB7F894DE01139620E07A
:1047A0003EE051E2E32FF0E050935700E49120FF08
:1047B00003C0E295EF703F5FEF708E2F90E0EA301C
:1047C000C0F0C7968D939D932F5F243159F74FBF4B
:1047D0008091E800877F8093E8006AE270E0CE0174
:1047E00001960E9446208091E8008B778093E80034
:1047F00057C0C096E7CF6091A4027091A502AE01A8
:104800004F5F5F4F0E94861FBC01892B09F448C08F
:104810009091E800977F9093E80089819A810E94A7
:10482000A420E1CF8038E1F58091E800877F809374
:10483000E80080919B028093F10045CF811130C048
:104840009091A202923060F58091E800877F80937A
:10485000E80090939B020E94372180919B0288235D
:1048600011F084E005C08091E30087FDFACF81E07C
:1048700080939F020E94701E13C08091A20281301B
:1048800079F481E0933009F080E080939D021092EA
:10489000E9008091E800877F8093E8000E9437213B
:1048A0008091E80083FF0AC08091E800877F8093B1
:1048B000E8008091EB0080628093EB00AA96E3E031
:1048C0000C94D5240895CF9380919F028823A1F062
:1048D000C091E900CF709091EC00892F817090FD1C
:1048E00080E8C82B1092E9008091E80083FD0E94C7
:1048F0001B23CF70C093E900CF9108950E948721B8
:1049000010929F020895E8EDF0E08081806180833D
:104910008AE18A95F1F700C08091D90081700895ED
:1049200097FB072E16F4009407D077FD09D00E945C
:10493000E12407FC05D03EF4909581959F4F0895A2
:10494000709561957F4F0895EE0FFF1F0590F491CC
:10495000E02D09942F923F924F925F926F927F9237
:104960008F929F92AF92BF92CF92DF92EF92FF927F
:104970000F931F93CF93DF93CDB7DEB7CA1BDB0B2B
:104980000FB6F894DEBF0FBECDBF09942A883988D0
:1049900048885F846E847D848C849B84AA84B984D7
:1049A000C884DF80EE80FD800C811B81AA81B981E3
:1049B000CE0FD11D0FB6F894DEBF0FBECDBFED01F7
:1049C0000895AA1BBB1B51E107C0AA1FBB1FA61756
:1049D000B70710F0A61BB70B881F991F5A95A9F7A8
:1049E00080959095BC01CD010895FB01DC0104C0C8
:1049F0008D910190801921F441505040C8F7881BD7
:104A0000990B0895FB01DC0102C001900D92415009
:104A10005040D8F70895F999FECF92BD81BDF89A1C
:104A2000992780B50895A8E1B0E042E050E00C94E9
:104A30003F25262FF999FECF92BD81BDF89A0197A7
:104A400000B4021639F01FBA20BD0FB6F894FA9AD6
:104A5000F99A0FBE08950396272F0E941A250E94E7
:104A60001925252F0E941A25242F0C941A2501960A
:104A7000272F0E941A250C941925DC01CB01FC017B
:104A8000F999FECF06C0F2BDE1BDF89A319600B4A7
:104A90000D9241505040B8F70895F894FFCFAA0402
:104AA000AA04DB04DB04680584050A050A058F05F2
:104AB00000060F060F063F23672350246723502468
:0A4AC0009A23BB23502412241E2465
:104ACA000C020100000001000000000000000501C6
:104ADA0000000004060000000000002808503C07FF
:104AEA0014C11DE61DC51D431E3E1EC41D01E20064
:104AFA00E900EA00B500B600B700CD008301CC009A
:104B0A008A0192019401210223022402250226022B
:104B1A0027022A02B300B4006F007000818283E288
:104B2A0000E900EA00B500B600B700CD008301CC69
:104B3A00008A0192019401210223022402250226FD
:104B4A000227022A02B300B4006F00700081828338
:0E4B5A00946697C63435F73133323633020095
:00000001FF
